:020000040800F2
:1000000000280020D50B0008710B0008790B0008B0
:10001000810B0008890B0008910B0008000000000C
:10002000000000000000000000000000990B000824
:10003000A50B000800000000B10B0008BD0B000874
:100040001D0C00081D0C00081D0C00081D0C0008EC
:100050001D0C00081D0C00081D0C00081D0C0008DC
:100060001D0C00081D0C00081D0C00081D0C0008CC
:100070001D0C00081D0C00081D0C00081D0C0008BC
:100080001D0C00081D0C00081D0C00081D0C0008AC
:100090001D0C00081D0C00081D0C00081D0C00089C
:1000A0001D0C00081D0C00081D0C00081D0C00088C
:1000B0001D0C00081D0C0008000000001D0C0008AD
:1000C0001D0C000800000000000000001D0C0008CE
:1000D000000000001D0C00081D0C000800000000BE
:1000E0001D0C00081D0C00081D0C0008000000007D
:1000F0000000000000000000000000000000000000
:0C01000000000000000000005FF808F1A3
:10010C0010B5054C237833B9044B13B10448AFF345
:10011C0000800123237010BD0C00002000000000A3
:10012C00301A000808B5034B1BB103490348AFF361
:10013C00008008BD0000000010000020301A0008EC
:10014C0080B582B000AF78607B68092B00F28081AB
:10015C0001A252F823F000BF8D010008D501000860
:10016C001D02000865020008AD020008F502000837
:10017C003D03000885030008CD03000815040008A2
:10018C0000220121B44801F02BF800220221B248D0
:10019C0001F026F800220421AF4801F021F80022DA
:1001AC000821AD4801F01CF800221021AA4801F0EA
:1001BC0017F800222021A84801F012F80122402152
:1001CC00A54801F00DF843E101220121A24801F0FC
:1001DC0007F800220221A04801F002F800220421B5
:1001EC009D4800F0FDFF012208219B4800F0F8FF1C
:1001FC0001221021984800F0F3FF0122202196489B
:10020C0000F0EEFF01224021934800F0E9FF1FE1CE
:10021C0000220121904800F0E3FF002202218E48C9
:10022C0000F0DEFF012204218B4800F0D9FF0022F0
:10023C000821894800F0D4FF00221021864800F0E4
:10024C00CFFF01222021844800F0CAFF0022402168
:10025C00814800F0C5FFFBE0002201217E4800F040
:10026C00BFFF002202217C4800F0BAFF00220421CB
:10027C00794800F0B5FF00220821774800F0B0FF64
:10028C0001221021744800F0ABFF0122202172489A
:10029C0000F0A6FF002240216F4800F0A1FFD7E03C
:1002AC00012201216C4800F09BFF002202216A48C8
:1002BC0000F096FF00220421674800F091FF012214
:1002CC000821654800F08CFF01221021624800F0E3
:1002DC0087FF00222021604800F082FF002240218D
:1002EC005D4800F07DFFB3E0002201215A4800F088
:1002FC0077FF01220221584800F072FF00220421EE
:10030C00554800F06DFF00220821534800F068FFAB
:10031C0001221021504800F063FF002220214E489A
:10032C0000F05EFF002240214B4800F059FF8FE0A7
:10033C0000220121484800F053FF012202214648C7
:10034C0000F04EFF00220421434800F049FF002238
:10035C000821414800F044FF002210213E4800F0E3
:10036C003FFF002220213C4800F03AFF00224021B0
:10037C00394800F035FF6BE000220121364800F0CF
:10038C002FFF00220221344800F02AFF0022042112
:10039C00314800F025FF012208212F4800F020FFF2
:1003AC00012210212C4800F01BFF012220212A4899
:1003BC0000F016FF01224021274800F011FF47E012
:1003CC0000220121244800F00BFF002202212248C8
:1003DC0000F006FF002204211F4800F001FF00225C
:1003EC0008211D4800F0FCFE002210211A4800F0E4
:1003FC00F7FE00222021184800F0F2FE00224021D6
:10040C00154800F0EDFE23E000220121124800F017
:10041C00E7FE00220221104800F0E2FE0022042137
:10042C000D4800F0DDFE002208210B4800F0D8FE3C
:10043C0001221021084800F0D3FE0022202106489A
:10044C0000F0CEFE00224021034800F0C9FE00BFA0
:10045C0000BF0837BD4680BD000C014080B582B09E
:10046C0000AF78607B68092B00F2C98101A252F8B9
:10047C0023F000BFA9040008FF040008550500087C
:10048C00AB0500080106000857060008AD06000879
:10049C000307000859070008B507000800224FF4AD
:1004AC000071C04800F09CFE00224FF48061BD48F2
:1004BC0000F096FE00224FF40061BA4800F090FE66
:1004CC0000224FF48051B74800F08AFE00224FF40E
:1004DC000051B44800F084FE00224FF48041B14832
:1004EC0000F07EFE01224FF40041AE4800F078FE91
:1004FC0085E101224FF40071AA4800F071FE002240
:10050C004FF48061A74800F06BFE00224FF40061AD
:10051C00A44800F065FE01224FF48051A14800F080
:10052C005FFE01224FF400519E4800F059FE01225B
:10053C004FF480419B4800F053FE01224FF40041E0
:10054C00984800F04DFE5AE100224FF40071954896
:10055C0000F046FE00224FF48061924800F040FE0D
:10056C0001224FF400618F4800F03AFE00224FF454
:10057C0080518C4800F034FE00224FF40051894821
:10058C0000F02EFE01224FF48041864800F028FE38
:10059C0000224FF40041834800F022FE2FE100229C
:1005AC004FF400717F4800F01BFE00224FF4806175
:1005BC007C4800F015FE00224FF40061794800F0F1
:1005CC000FFE00224FF48051764800F009FE012204
:1005DC004FF40051734800F003FE01224FF48041A8
:1005EC00704800F0FDFD00224FF400416D4800F012
:1005FC00F7FD04E101224FF400716A4800F0F0FDB0
:10060C0000224FF48061674800F0EAFD00224FF4AD
:10061C000061644800F0E4FD01224FF48051614810
:10062C0000F0DEFD01224FF400515E4800F0D8FDD1
:10063C0000224FF480415B4800F0D2FD00224FF4C1
:10064C000041584800F0CCFDD9E000224FF4007175
:10065C00544800F0C5FD01224FF48061514800F070
:10066C00BFFD00224FF400614E4800F0B9FD00229E
:10067C004FF480514B4800F0B3FD01224FF4005170
:10068C00484800F0ADFD00224FF48041454800F091
:10069C00A7FD00224FF40041424800F0A1FDAEE05E
:1006AC0000224FF400713F4800F09AFD01224FF4F4
:1006BC0080613C4800F094FD00224FF40061394801
:1006CC0000F08EFD00224FF48051364800F088FD7A
:1006DC0000224FF40051334800F082FD00224FF409
:1006EC008041304800F07CFD00224FF400412D4841
:1006FC0000F076FD83E000224FF40071294800F0F1
:10070C006FFD00224FF48061264800F069FD002245
:10071C004FF40061234800F063FD01224FF4805137
:10072C00204800F05DFD01224FF400511D4800F0FF
:10073C0057FD01224FF480411A4800F051FD01226F
:10074C004FF40041174800F04BFD58E000224FF4E5
:10075C000071144800F044FD00224FF480611148F0
:10076C0000F03EFD00224FF400610E4800F038FD11
:10077C0000224FF480510B4800F032FD00224FF460
:10078C000051084800F02CFD00224FF48041054830
:10079C0000F026FD00224FF40041024800F020FD3D
:1007AC002DE000BF0008014000224FF400711648F4
:1007BC0000F016FD00224FF48061134800F010FD8C
:1007CC0000224FF40061104800F00AFD00224FF4A3
:1007DC0080510D4800F004FD01224FF400510A48ED
:1007EC0000F0FEFC00224FF48041074800F0F8FCBA
:1007FC0000224FF40041044800F0F2FC00BF00BF9F
:10080C000837BD4680BD00BF0008014080B58AB0E6
:10081C0000AF00F0FFF900F0EBF800F025F90A2327
:10082C007B6205233B620323FB610023BB61002336
:10083C007B6100233B610023FB600023BB60002332
:10084C007B607B6A0A2B2DD101237B607B68BB61AB
:10085C000023BB60BB683B613B697B617B69FB60D0
:10086C0000222021604800F0BBFC012240215E48A0
:10087C0000F0B6FC012280215B4800F0B1FC0122A3
:10088C004FF48051594800F0ABFC01224FF4005159
:10089C00564800F0A5FC00224FF48041534800F06C
:1008AC009FFC64E07B6A072B18D10123BB600023FB
:1008BC007B607B68FB6001224FF480514B4800F059
:1008CC008FFC00224FF40051484800F089FC0122B3
:1008DC004FF48041454800F083FC48E07B6A052BCF
:1008EC002DD10123FB60FB683B6100237B607B689F
:1008FC00BB60BB687B617B69BB61012240213A48CC
:10090C0000F06EFC01222021374800F069FC002227
:10091C008021354800F064FC01224FF4005133482B
:10092C0000F05EFC00224FF48051304800F058FC7F
:10093C0001224FF480412D4800F052FC17E07B6AF5
:10094C00022B14D101237B6100233B613B69BB610A
:10095C0000224021244800F043FC0122202122489F
:10096C0000F03EFC012280211F4800F039FC7B6A1C
:10097C00013B7B623B6A5A1E3A621846FFF7E0FB6A
:10098C00FB695A1EFA611846FFF768FD3B6A002B9B
:10099C000ED1BB69002B01D003233B623B69002BBA
:1009AC0001D002233B627B69002B01D005233B6203
:1009BC00FB69002B0ED1FB68002B01D00323FB61DC
:1009CC007B68002B01D00223FB61BB68002B01D09C
:1009DC000523FB617B6A002B01D10A237B624FF458
:1009EC007A7000F079F92CE700080140000C014006
:1009FC0080B590B000AF07F11803282200211846EB
:100A0C0000F0E4FF3B1D00221A605A609A60DA6025
:100A1C001A610223BB610123BB621023FB6200231A
:100A2C007B6307F11803184600F0F2FB0346002B1A
:100A3C0001D000F06FF80F237B600023BB60002314
:100A4C00FB6000233B6100237B613B1D00211846AA
:100A5C0000F060FE0346002B01D000F05BF800BFF5
:100A6C004037BD4680BD000080B586B000AF07F1B1
:100A7C00080300221A605A609A60DA60224B9B6964
:100A8C00214A43F0040393611F4B9B6903F0040359
:100A9C007B607B681C4B9B691B4A43F0080393618A
:100AAC00194B9B6903F008033B603B6800224FF62F
:100ABC00E061164800F094FB002247F27F011448D5
:100ACC0000F08EFB4FF6E063BB600123FB6000235C
:100ADC003B6102237B6107F1080319460B4800F0C8
:100AEC0003FA47F27F03BB600123FB6000233B61E9
:100AFC0002237B6107F108031946054800F0F4F95D
:100B0C0000BF1837BD4680BD0010024000080140F0
:100B1C00000C014080B400AF72B600BF00BFFDE70F
:100B2C0080B483B000AF0E4B9B690D4A43F00103B8
:100B3C0093610B4B9B6903F001037B607B68084B53
:100B4C00DB69074A43F08053D361054BDB6903F043
:100B5C0080533B603B6800BF0C37BD4680BC704780
:100B6C000010024080B400AF00BFFDE780B400AFBE
:100B7C0000BFFDE780B400AF00BFFDE780B400AF5D
:100B8C0000BFFDE780B400AF00BFFDE780B400AF4D
:100B9C0000BFBD4680BC704780B400AF00BFBD46EF
:100BAC0080BC704780B400AF00BFBD4680BC7047AE
:100BBC0080B500AF00F074F800BF80BD80B400AF0A
:100BCC0000BFBD4680BC7047FFF7F8FF0B480C49CF
:100BDC000C4A002302E0D458C4500433C4188C428D
:100BEC00F9D3094A094C002301E013600432A242F4
:100BFC00FBD300F0F3FEFFF709FE70470000002066
:100C0C000C000020741A00080C0000202C0000209E
:100C1C00FEE7000080B500AF084B1B68074A43F0A5
:100C2C0010031360032000F02BF90F2000F008F8DC
:100C3C00FFF776FF0023184680BD00BF002002405E
:100C4C0080B582B000AF7860124B1A68124B1B78DB
:100C5C0019464FF47A73B3FBF1F3B2FBF3F3184676
:100C6C0000F035F90346002B01D001230EE07B6820
:100C7C000F2B0AD8002279684FF0FF3000F00BF9E7
:100C8C00064A7B681360002300E0012318460837EE
:100C9C00BD4680BD0000002008000020040000209C
:100CAC0080B400AF054B1B781A46054B1B681344E8
:100CBC00034A136000BFBD4680BC7047080000208B
:100CCC002800002080B400AF024B1B681846BD46BC
:100CDC0080BC70472800002080B584B000AF7860DD
:100CEC00FFF7F0FFB8607B68FB60FB68B3F1FF3F78
:100CFC0005D00A4B1B781A46FB681344FB6000BFF7
:100D0C00FFF7E0FF0246BB68D31AFA689A42F7D89D
:100D1C0000BF00BF1037BD4680BD00BF08000020DB
:100D2C0080B485B000AF78607B6803F00703FB608C
:100D3C000C4BDB68BB60BA684FF6FF031340BB601B
:100D4C00FB681A02BB68134343F0BF6343F40033E0
:100D5C00BB60044ABB68D36000BF1437BD4680BC7F
:100D6C00704700BF00ED00E080B400AF044BDB68BF
:100D7C001B0A03F007031846BD4680BC704700BF32
:100D8C0000ED00E080B483B000AF03463960FB7126
:100D9C0097F90730002B0ADB3B68DAB20C4997F95C
:100DAC0007301201D2B20B4483F800230AE03B68EF
:100DBC00DAB20849FB7903F00F03043B1201D2B2FB
:100DCC000B441A7600BF0C37BD4680BC704700BF81
:100DDC0000E100E000ED00E080B489B000AFF86005
:100DEC00B9607A60FB6803F00703FB61FB69C3F130
:100DFC000703042B28BF0423BB61FB690433062BB8
:100E0C0002D9FB69033B00E000237B614FF0FF320A
:100E1C00BB6902FA03F3DA43BB681A407B699A4058
:100E2C004FF0FF317B6901FA03F3D9437B680B4028
:100E3C00134318462437BD4680BC704780B582B03A
:100E4C0000AF78607B68013BB3F1807F01D3012355
:100E5C000FE00A4A7B68013B53600F214FF0FF30D3
:100E6C00FFF790FF054B00229A60044B07221A6093
:100E7C00002318460837BD4680BD00BF10E000E0D7
:100E8C0080B582B000AF78607868FFF749FF00BF8B
:100E9C000837BD4680BD80B586B000AF0346B9604B
:100EAC007A60FB7300237B61FFF75EFF78617A68E1
:100EBC00B9687869FFF790FF024697F90F30114631
:100ECC001846FFF75FFF00BF1837BD4680BD80B5E1
:100EDC0082B000AF78607868FFF7B0FF0346184621
:100EEC000837BD4680BD000080B48BB000AF786081
:100EFC00396000237B6200233B6261E101227B6A43
:100F0C0002FA03F3FB613B681B68FA691340BB618F
:100F1C00BA69FB699A4240F050813B685B68974A1A
:100F2C0093425ED0954A934275D8954A934258D0D5
:100F3C00934A93426FD8934A934252D0914A934228
:100F4C0069D8914A93424CD08F4A934263D88F4AC6
:100F5C00934246D08D4A93425DD8122B2AD8122B3D
:100F6C0059D801A252F823F0EF0F0008C90F00085E
:100F7C00DB0F00081D1000082310000823100008C8
:100F8C002310000823100008231000082310000869
:100F9C002310000823100008231000082310000859
:100FAC00231000082310000823100008D10F00089C
:100FBC00E50F0008764A934213D02CE03B68DB68BF
:100FCC003B6229E03B68DB6804333B6224E03B680E
:100FDC00DB6808333B621FE03B68DB680C333B6229
:100FEC001AE03B689B68002B02D104233B6213E0A0
:100FFC003B689B68012B05D108233B627B68FA692F
:10100C001A6109E008233B627B68FA695A6103E0C4
:10101C0000233B6200E000BFBB69FF2B01D87B685B
:10102C0001E07B6804337B61BB69FF2B02D87B6AD0
:10103C009B0002E07B6A083B9B003B617B691A6862
:10104C000F213B6901FA03F3DB431A40396A3B6910
:10105C0001FA03F31A437B691A603B685B6803F07F
:10106C008053002B00F0A9804A4B9B69494A43F0FE
:10107C0001039361474B9B6903F00103BB60BB68A1
:10108C00454A7B6A9B08023352F82330FB607B6A2B
:10109C0003F003039B000F2202FA03F3DB43FA680D
:1010AC001340FB607B683D4A93420DD07B683C4A01
:1010BC00934207D07B683B4A934201D1022304E060
:1010CC00032302E0012300E000237A6A02F003020A
:1010DC0092009340FA681343FB602F497B6A9B088C
:1010EC000233FA6841F823203B685B6803F48013F1
:1010FC00002B06D02C4B9A682B49BB6913438B6091
:10110C0006E0294B9A68BB69DB43274913408B6087
:10111C003B685B6803F40013002B06D0224BDA68A3
:10112C002149BB691343CB6006E01F4BDA68BB69EE
:10113C00DB431D491340CB603B685B6803F4003311
:10114C00002B06D0184B5A681749BB6913434B60E8
:10115C0006E0154B5A68BB69DB43134913404B60DF
:10116C003B685B6803F48033002B1FD00E4B1A686E
:10117C000D49BB6913430B601FE000BF0000321028
:10118C00000031100000221000002110000012108D
:10119C000000111000100240000001400008014046
:1011AC00000C014000100140000401400B4B1A6878
:1011BC00BB69DB43094913400B607B6A01337B62DB
:1011CC003B681A687B6A22FA03F3002B7FF496AE15
:1011DC0000BF00BF2C37BD4680BC704700040140E7
:1011EC0080B483B000AF78600B467B8013467B7075
:1011FC007B78002B03D07A887B681A6103E07B88AC
:10120C001A047B681A6100BF0C37BD4680BC70475E
:10121C0080B586B000AF78607B68002B01D10123CC
:10122C0072E27B681B6803F00103002B00F08780DF
:10123C00924B5B6803F00C03042B0CD08F4B5B6858
:10124C0003F00C03082B12D18C4B5B6803F4803336
:10125C00B3F5803F0BD1894B1B6803F40033002B93
:10126C006CD07B685B68002B68D101234CE27B68F7
:10127C005B68B3F5803F06D1804B1B687F4A43F413
:10128C00803313602EE07B685B68002B0CD17B4BAA
:10129C001B687A4A23F480331360784B1B68774AB7
:1012AC0023F4802313601DE07B685B68B3F5A02FEB
:1012BC000CD1724B1B68714A43F4802313606F4B43
:1012CC001B686E4A43F4803313600BE06B4B1B6856
:1012DC006A4A23F480331360684B1B68674A23F413
:1012EC00802313607B685B68002B13D0FFF7EAFC4C
:1012FC00386108E0FFF7E6FC02463B69D31A642B21
:10130C0001D9032300E25D4B1B6803F40033002B6F
:10131C00F0D014E0FFF7D6FC386108E0FFF7D2FC00
:10132C0002463B69D31A642B01D90323ECE1534BDE
:10133C001B6803F40033002BF0D100E000BF7B6886
:10134C001B6803F00203002B63D04C4B5B6803F06B
:10135C000C03002B0BD0494B5B6803F00C03082BE0
:10136C001CD1464B5B6803F48033002B16D1434BE6
:10137C001B6803F00203002B05D07B681B69012B53
:10138C0001D00123C0E13D4B1B6823F0F8027B68C0
:10139C005B69DB00394913430B603AE07B681B69DE
:1013AC00002B20D0364B01221A60FFF78BFC3861E2
:1013BC0008E0FFF787FC02463B69D31A022B01D9E0
:1013CC000323A1E12D4B1B6803F00203002BF0D08B
:1013DC002A4B1B6823F0F8027B685B69DB0027490A
:1013EC0013430B6015E0264B00221A60FFF76AFCD2
:1013FC00386108E0FFF766FC02463B69D31A022B02
:10140C0001D9032380E11D4B1B6803F00203002B61
:10141C00F0D17B681B6803F00803002B3AD07B6883
:10142C009B69002B19D0174B01221A60FFF74AFC5D
:10143C00386108E0FFF746FC02463B69D31A022BE1
:10144C0001D9032360E10D4B5B6A03F00203002B0F
:10145C00F0D0012000F09CFA1CE00A4B00221A602C
:10146C00FFF730FC38610FE0FFF72CFC02463B69BC
:10147C00D31A022B08D9032346E100BF0010024007
:10148C000000424280044242924B5B6A03F002032A
:10149C00002BE9D17B681B6803F00403002B00F0E0
:1014AC00A6800023FB758B4BDB6903F08053002B6C
:1014BC000DD1884BDB69874A43F08053D361854B50
:1014CC00DB6903F08053BB60BB680123FB75824B67
:1014DC001B6803F48073002B18D17F4B1B687E4A6A
:1014EC0043F480731360FFF7EDFB386108E0FFF7FE
:1014FC00E9FB02463B69D31A642B01D9032303E1B0
:10150C00754B1B6803F48073002BF0D07B68DB6891
:10151C00012B06D16F4B1B6A6E4A43F00103136219
:10152C002DE07B68DB68002B0CD16A4B1B6A694A87
:10153C0023F001031362674B1B6A664A23F0040312
:10154C0013621CE07B68DB68052B0CD1614B1B6ABA
:10155C00604A43F0040313625E4B1B6A5D4A43F01E
:10156C00010313620BE05B4B1B6A5A4A23F0010325
:10157C001362584B1B6A574A23F0040313627B68AF
:10158C00DB68002B15D0FFF79DFB38610AE0FFF7F5
:10159C0099FB02463B69D31A41F28832934201D936
:1015AC000323B1E04B4B1B6A03F00203002BEED07C
:1015BC0014E0FFF787FB38610AE0FFF783FB024674
:1015CC003B69D31A41F28832934201D903239BE041
:1015DC00404B1B6A03F00203002BEED1FB7D012B69
:1015EC0005D13C4BDB693B4A23F08053D3617B68CC
:1015FC00DB69002B00F08780364B5B6803F00C0333
:10160C00082B61D07B68DB69022B46D1334B00225F
:10161C001A60FFF757FB386108E0FFF753FB0246EF
:10162C003B69D31A022B01D903236DE0294B1B68AC
:10163C0003F00073002BF0D17B681B6AB3F5803F7D
:10164C0008D1244B5B6823F400327B689B682149EA
:10165C0013434B601F4B5B6823F474127B68196A4D
:10166C007B685B6A0B431B4913434B601B4B01228A
:10167C001A60FFF727FB386108E0FFF723FB0246EF
:10168C003B69D31A022B01D903233DE0114B1B6894
:10169C0003F00073002BF0D035E0104B00221A60E1
:1016AC00FFF710FB386108E0FFF70CFB02463B69C3
:1016BC00D31A022B01D9032326E0064B1B6803F037
:1016CC000073002BF0D11EE07B68DB69012B07D186
:1016DC00012319E0001002400070004060004242FB
:1016EC000B4B5B68FB60FB6803F480327B681B6A06
:1016FC009A4206D1FB6803F470127B685B6A9A42CB
:10170C0001D0012300E0002318461837BD4680BDE8
:10171C000010024080B584B000AF786039607B68FF
:10172C00002B01D10123D0E06A4B1B6803F00703A7
:10173C003A689A4210D9674B1B6823F00702654937
:10174C003B6813430B60634B1B6803F007033A6859
:10175C009A4201D00123B8E07B681B6803F00203B6
:10176C00002B20D07B681B6803F00403002B05D0F2
:10177C00594B5B68584A43F4E06353607B681B68C1
:10178C0003F00803002B05D0534B5B68524A43F41B
:10179C0060535360504B5B6823F0F0027B689B688E
:1017AC004D4913434B607B681B6803F00103002B0E
:1017BC0040D07B685B68012B07D1474B1B6803F457
:1017CC000033002B15D101237FE07B685B68022B73
:1017DC0007D1414B1B6803F00073002B09D1012387
:1017EC0073E03D4B1B6803F00203002B01D1012376
:1017FC006BE0394B5B6823F003027B685B6836490E
:10180C0013434B60FFF75EFAF8600AE0FFF75AFAF1
:10181C000246FB68D31A41F28832934201D9032362
:10182C0053E02D4B5B6803F00C027B685B689B00FC
:10183C009A42EBD1274B1B6803F007033A689A4294
:10184C0010D2244B1B6823F0070222493B68134338
:10185C000B60204B1B6803F007033A689A4201D0D7
:10186C00012332E07B681B6803F00403002B08D0D3
:10187C00194B5B6823F4E0627B68DB681649134301
:10188C004B607B681B6803F00803002B09D0124BDC
:10189C005B6823F460527B681B69DB000E491343C1
:1018AC004B6000F021F802460B4B5B681B0903F000
:1018BC000F030A49CB5C22FA03F3094A1360094B64
:1018CC001B681846FFF7BCF9002318461037BD46B5
:1018DC0080BD00BF0020024000100240481A0008E2
:1018EC00000000200400002080B487B000AF00236B
:1018FC00FB600023BB6000237B6100237B60002323
:10190C003B611E4B5B68FB60FB6803F00C03042B14
:10191C0002D0082B03D027E0194B3B6127E0FB6872
:10192C009B0C03F00F03174AD35C7B60FB6803F43A
:10193C008033002B10D0114B5B685B0C03F0010360
:10194C00114AD35CBB607B680D4A03FB02F2BB6897
:10195C00B2FBF3F37B6104E07B680C4A02FB03F3FC
:10196C007B617B693B6102E0054B3B6100BF3B69DE
:10197C0018461C37BD4680BC704700BF00100240A3
:10198C0000127A00581A0008681A000800093D0075
:10199C0080B485B000AF78600A4B1B680A4AA2FB82
:1019AC0003235B0A7A6802FB03F3FB6000BFFB684E
:1019BC005A1EFA60002BF9D100BF00BF1437BD4688
:1019CC0080BC704700000020D34D621003460244D7
:1019DC00934200D1704703F8011BF9E770B500265C
:1019EC000C4D0D4C641BA410A64209D100F01AF842
:1019FC0000260A4D0A4C641BA410A64205D170BDEA
:101A0C0055F8043B98470136EEE755F8043B9847E8
:101A1C000136F2E76C1A00086C1A00086C1A000800
:101A2C00701A0008F8B500BFF8BC08BC9E46704799
:0C1A3C00F8B500BFF8BC08BC9E4670471F
:101A48000000000000000000010203040607080966
:101A580002030405060708090A0B0C0D0E0F1010E7
:041A68000102000077
:041A6C00310100083C
:041A70000D0100085C
:0C1A740000127A001000000001000000C9
:0400000508000BD50F
:00000001FF
